{
  "contractName": "Adoption",
  "abi": [
    {
      "constant": true,
      "inputs": [
        {
          "internalType": "uint256",
          "name": "",
          "type": "uint256"
        }
      ],
      "name": "adopters",
      "outputs": [
        {
          "internalType": "address",
          "name": "",
          "type": "address"
        }
      ],
      "payable": false,
      "stateMutability": "view",
      "type": "function"
    },
    {
      "constant": false,
      "inputs": [
        {
          "internalType": "uint256",
          "name": "petId",
          "type": "uint256"
        }
      ],
      "name": "adopt",
      "outputs": [
        {
          "internalType": "uint256",
          "name": "",
          "type": "uint256"
        }
      ],
      "payable": false,
      "stateMutability": "nonpayable",
      "type": "function"
    },
    {
      "constant": false,
      "inputs": [
        {
          "internalType": "uint256",
          "name": "petId",
          "type": "uint256"
        }
      ],
      "name": "refund",
      "outputs": [],
      "payable": false,
      "stateMutability": "nonpayable",
      "type": "function"
    },
    {
      "constant": true,
      "inputs": [],
      "name": "getAdopters",
      "outputs": [
        {
          "internalType": "address[16]",
          "name": "",
          "type": "address[16]"
        }
      ],
      "payable": false,
      "stateMutability": "view",
      "type": "function"
    }
  ],
  "bytecode": "0x608060405234801561001057600080fd5b50610495806100206000396000f3fe608060405234801561001057600080fd5b506004361061004c5760003560e01c8063278ecde1146100515780633de4eb171461007f57806343ae80d3146100c55780638588b2c514610133575b600080fd5b61007d6004803603602081101561006757600080fd5b8101908080359060200190929190505050610175565b005b610087610318565b6040518082601060200280838360005b838110156100b2578082015181840152602081019050610097565b5050505090500191505060405180910390f35b6100f1600480360360208110156100db57600080fd5b8101908080359060200190929190505050610399565b604051808273ffffffffffffffffffffffffffffffffffffffff1673ffffffffffffffffffffffffffffffffffffffff16815260200191505060405180910390f35b61015f6004803603602081101561014957600080fd5b81019080803590602001909291905050506103cc565b6040518082815260200191505060405180910390f35b600081101580156101875750600f8111155b6101f9576040517f08c379a000000000000000000000000000000000000000000000000000000000815260040180806020018281038252601f8152602001807f506574204944206d757374206265206265747765656e203020616e642031350081525060200191505060405180910390fd5b3373ffffffffffffffffffffffffffffffffffffffff166000826010811061021d57fe5b0160009054906101000a900473ffffffffffffffffffffffffffffffffffffffff1673ffffffffffffffffffffffffffffffffffffffff16146102c8576040517f08c379a000000000000000000000000000000000000000000000000000000000815260040180806020018281038252601b8152602001807f4f6e6c79207468652061646f707465722063616e20726566756e64000000000081525060200191505060405180910390fd5b60008082601081106102d657fe5b0160006101000a81548173ffffffffffffffffffffffffffffffffffffffff021916908373ffffffffffffffffffffffffffffffffffffffff16021790555050565b61032061043d565b600060108060200260405190810160405280929190826010801561038f576020028201915b8160009054906101000a900473ffffffffffffffffffffffffffffffffffffffff1673ffffffffffffffffffffffffffffffffffffffff1681526020019060010190808311610345575b5050505050905090565b600081601081106103a657fe5b016000915054906101000a900473ffffffffffffffffffffffffffffffffffffffff1681565b60008082101580156103df5750600f8211155b6103e857600080fd5b33600083601081106103f657fe5b0160006101000a81548173ffffffffffffffffffffffffffffffffffffffff021916908373ffffffffffffffffffffffffffffffffffffffff160217905550819050919050565b60405180610200016040528060109060208202803883398082019150509050509056fea265627a7a7231582073ea7319e634fe193ab38650075bf9206d33a6c81b78d1d04e1121526979155864736f6c63430005100032",
  "source": "pragma solidity ^0.5.0;\r\n \r\ncontract Adoption {\r\n    address[16] public adopters;\r\n\r\n    // Adopting a pet\r\n    function adopt(uint petId) public returns (uint) {\r\n        require(petId >= 0 && petId <= 15);\r\n        adopters[petId] = msg.sender;\r\n        return petId;\r\n    }\r\n\r\n        function refund(uint petId) public {\r\n        require(petId >= 0 && petId <= 15, \"Pet ID must be between 0 and 15\");\r\n        require(adopters[petId] == msg.sender, \"Only the adopter can refund\");\r\n\r\n        adopters[petId] = address(0); // Reset the adopter address to 0x0\r\n    }\r\n\r\n    // Retrieving the adopters\r\n    function getAdopters() public view returns (address[16]  memory) {\r\n        return adopters;\r\n    }\r\n}",
  "sourcePath": "C:\\511自习室\\pet-shop-box\\contracts\\Adoption.sol",
  "compiler": {
    "name": "solc",
    "version": "0.5.16+commit.9c3226ce.Emscripten.clang"
  },
  "schemaVersion": "3.4.16",
  "updatedAt": "2025-06-11T05:46:12.131Z",
  "networkType": "ethereum",
  "devdoc": {
    "methods": {}
  },
  "userdoc": {
    "methods": {}
  }
}