{
  "contractName": "Adoption",
  "abi": [
    {
      "constant": true,
      "inputs": [
        {
          "internalType": "uint256",
          "name": "",
          "type": "uint256"
        }
      ],
      "name": "adopters",
      "outputs": [
        {
          "internalType": "address",
          "name": "",
          "type": "address"
        }
      ],
      "payable": false,
      "stateMutability": "view",
      "type": "function"
    },
    {
      "constant": true,
      "inputs": [
        {
          "internalType": "uint256",
          "name": "",
          "type": "uint256"
        }
      ],
      "name": "adopters_history",
      "outputs": [
        {
          "internalType": "address",
          "name": "",
          "type": "address"
        }
      ],
      "payable": false,
      "stateMutability": "view",
      "type": "function"
    },
    {
      "constant": false,
      "inputs": [
        {
          "internalType": "uint256",
          "name": "petId",
          "type": "uint256"
        }
      ],
      "name": "adopt",
      "outputs": [
        {
          "internalType": "uint256",
          "name": "",
          "type": "uint256"
        }
      ],
      "payable": false,
      "stateMutability": "nonpayable",
      "type": "function"
    },
    {
      "constant": false,
      "inputs": [
        {
          "internalType": "uint256",
          "name": "petId",
          "type": "uint256"
        }
      ],
      "name": "refund",
      "outputs": [],
      "payable": false,
      "stateMutability": "nonpayable",
      "type": "function"
    },
    {
      "constant": true,
      "inputs": [],
      "name": "getAdopters",
      "outputs": [
        {
          "internalType": "address[16]",
          "name": "",
          "type": "address[16]"
        }
      ],
      "payable": false,
      "stateMutability": "view",
      "type": "function"
    },
    {
      "constant": true,
      "inputs": [],
      "name": "getAdopters_history",
      "outputs": [
        {
          "internalType": "address[16]",
          "name": "",
          "type": "address[16]"
        }
      ],
      "payable": false,
      "stateMutability": "view",
      "type": "function"
    }
  ],
  "bytecode": "0x608060405234801561001057600080fd5b5061068d806100206000396000f3fe608060405234801561001057600080fd5b50600436106100625760003560e01c8063278ecde1146100675780633de4eb171461009557806343ae80d3146100db5780638588b2c514610149578063adf5133f1461018b578063e7419e03146101f9575b600080fd5b6100936004803603602081101561007d57600080fd5b810190808035906020019092919050505061023f565b005b61009d61045d565b6040518082601060200280838360005b838110156100c85780820151818401526020810190506100ad565b5050505090500191505060405180910390f35b610107600480360360208110156100f157600080fd5b81019080803590602001909291905050506104de565b604051808273ffffffffffffffffffffffffffffffffffffffff1673ffffffffffffffffffffffffffffffffffffffff16815260200191505060405180910390f35b6101756004803603602081101561015f57600080fd5b8101908080359060200190929190505050610511565b6040518082815260200191505060405180910390f35b6101b7600480360360208110156101a157600080fd5b8101908080359060200190929190505050610582565b604051808273ffffffffffffffffffffffffffffffffffffffff1673ffffffffffffffffffffffffffffffffffffffff16815260200191505060405180910390f35b6102016105b5565b6040518082601060200280838360005b8381101561022c578082015181840152602081019050610211565b5050505090500191505060405180910390f35b600081101580156102515750600f8111155b6102c3576040517f08c379a000000000000000000000000000000000000000000000000000000000815260040180806020018281038252601f8152602001807f506574204944206d757374206265206265747765656e203020616e642031350081525060200191505060405180910390fd5b3373ffffffffffffffffffffffffffffffffffffffff16600082601081106102e757fe5b0160009054906101000a900473ffffffffffffffffffffffffffffffffffffffff1673ffffffffffffffffffffffffffffffffffffffff1614610392576040517f08c379a000000000000000000000000000000000000000000000000000000000815260040180806020018281038252601b8152602001807f4f6e6c79207468652061646f707465722063616e20726566756e64000000000081525060200191505060405180910390fd5b6000816010811061039f57fe5b0160009054906101000a900473ffffffffffffffffffffffffffffffffffffffff16601082601081106103ce57fe5b0160006101000a81548173ffffffffffffffffffffffffffffffffffffffff021916908373ffffffffffffffffffffffffffffffffffffffff160217905550600080826010811061041b57fe5b0160006101000a81548173ffffffffffffffffffffffffffffffffffffffff021916908373ffffffffffffffffffffffffffffffffffffffff16021790555050565b610465610635565b60006010806020026040519081016040528092919082601080156104d4576020028201915b8160009054906101000a900473ffffffffffffffffffffffffffffffffffffffff1673ffffffffffffffffffffffffffffffffffffffff168152602001906001019080831161048a575b5050505050905090565b600081601081106104eb57fe5b016000915054906101000a900473ffffffffffffffffffffffffffffffffffffffff1681565b60008082101580156105245750600f8211155b61052d57600080fd5b336000836010811061053b57fe5b0160006101000a81548173ffffffffffffffffffffffffffffffffffffffff021916908373ffffffffffffffffffffffffffffffffffffffff160217905550819050919050565b6010816010811061058f57fe5b016000915054906101000a900473ffffffffffffffffffffffffffffffffffffffff1681565b6105bd610635565b6010808060200260405190810160405280929190826010801561062b576020028201915b8160009054906101000a900473ffffffffffffffffffffffffffffffffffffffff1673ffffffffffffffffffffffffffffffffffffffff16815260200190600101908083116105e1575b5050505050905090565b60405180610200016040528060109060208202803883398082019150509050509056fea265627a7a72315820667b2cbc228950ffe6ab6e3af7f60877ae101b736fb99c3e8c63427ed85372ae64736f6c63430005100032",
  "source": "pragma solidity ^0.5.0;\r\n \r\ncontract Adoption {\r\n    address[16] public adopters;\r\n    address[16] public adopters_history;\r\n\r\n    // Adopting a pet\r\n    function adopt(uint petId) public returns (uint) {\r\n        require(petId >= 0 && petId <= 15);\r\n        adopters[petId] = msg.sender;\r\n        return petId;\r\n    }\r\n\r\n    function refund(uint petId) public {\r\n        require(petId >= 0 && petId <= 15, \"Pet ID must be between 0 and 15\");\r\n        require(adopters[petId] == msg.sender, \"Only the adopter can refund\");\r\n\r\n        adopters_history[petId]=adopters[petId];\r\n        adopters[petId] = address(0); // Reset the adopter address to 0x0\r\n    }\r\n\r\n    // Retrieving the adopters\r\n    function getAdopters() public view returns (address[16]  memory) {\r\n        return adopters;\r\n    }\r\n\r\n    // Retrieving the adopters\r\n    function getAdopters_history() public view returns (address[16]  memory) {\r\n        return adopters_history;\r\n    }\r\n}",
  "sourcePath": "C:\\511自习室\\pet-shop-box\\contracts\\Adoption.sol",
  "compiler": {
    "name": "solc",
    "version": "0.5.16+commit.9c3226ce.Emscripten.clang"
  },
  "schemaVersion": "3.4.16",
  "updatedAt": "2025-06-11T06:27:57.848Z",
  "networkType": "ethereum",
  "devdoc": {
    "methods": {}
  },
  "userdoc": {
    "methods": {}
  }
}